:1000000004C100002FC100002DC100002BC1000061
:1000100029C1000027C1000025C1000023C1000044
:1000200021C100001FC100001DC100001BC1000054
:1000300019C1000017C1000015C1000013C1000064
:1000400011C100000FC100000DC100000BC1000074
:1000500009C1000007C1000005C100000C948D110A
:1000600001C100000C942B130C947B14FBC0000006
:10007000F9C00000F7C00000F5C00000F3C00000A8
:10008000F1C00000EFC00000EDC00000EBC00000B8
:100090000C946B130C94BA14E5C00000E3C000008C
:1000A000E1C00000DFC00000DDC00000DBC00000D8
:1000B000D9C00000D7C00000D5C00000D3C00000E8
:1000C000D1C00000CFC00000CDC000000C94AB1325
:1000D0000C94F914C7C000000C94EB130C94381561
:1000E000C1C0000000002100240027002A002D00CC
:1000F0003000330001010000040107010A01000083
:100100002200250028002B002E00310034000201BF
:100110000000050108010B0100002000230026005B
:1001200029002C002F00320000010000030106010D
:10013000090105050505070508080808020202026D
:100140000A0A080804040404010101010101010173
:100150000303030303030303040707070C0C0C0C3E
:100160000C0C0C0C02020202060606060606060627
:100170000B0B0B0B0B0B0B0B0102102020080810B4
:100180002040102040800201020108040201010207
:1001900004081020408080402010080402018004E0
:1001A000020180402010080402010804020101023B
:1001B0000408102040800102040810204080000044
:1001C000090A02080B0C0D070603040100000000D9
:1001D000000000000000000000000000000000001F
:1001E0000000000000000000000011100F000000DF
:1001F00000000000000000000000000000000000FF
:100200000000000034014A02AA1611241FBECFEFDD
:10021000D1E2DEBFCDBF00E00CBF13E0A0E0B2E052
:10022000E0E3F3E300E00BBF02C007900D92AC3FA8
:10023000B107D9F71BBE19E0ACEFB3E001C01D92C6
:10024000A634B107E1F712E0CAE0D2E004C0229779
:10025000FE010E949219C430D107C9F70E94E1172C
:100260000C949619CDCE08951092010410920204B8
:10027000109205041092070482E090E0A0E0B0E044
:100280008093080490930904A0930A04B0930B048C
:1002900010921F04109229041092280487EE93E014
:1002A000909327048093260410922B040895EF92D4
:1002B000FF920F931F938EEB98E040E855E260E0C9
:1002C00070E00E9477158EEB98E00E94A8168823B4
:1002D000D1F38EEB98E060E072E00E94091985E3AB
:1002E00061E00E9445128CEF93E061E045E31CD38E
:1002F0008823B9F48EEB98E069E172E00E940B1953
:100300008EEB98E061E472E00E940B198EEB98E0AE
:100310006AE572E00E940B198EEB98E064E772E0E8
:100320003FC08EEB98E068EB72E00E940B198EEBF9
:1003300098E061EE72E00E94091980910704823012
:1003400049F0833061F0813079F48EEB98E06EEE05
:1003500072E00EC08EEB98E062EF72E009C08EEBA7
:1003600098E066EF72E004C08EEB98E06BEF72E00D
:100370000E940B1988E094E06CEF73E041E00E946A
:100380006D0D882381F488E094E06CEF73E040E029
:100390000E946D0D882339F48EEB98E063E073E0E2
:1003A0000E940B1972C08EEB98E06DE473E00E941E
:1003B00009198EEB98E060911F044AE050E00E941A
:1003C000ED188EEB98E00E94211820910C0430E08B
:1003D00040E050E060911104709112048091130488
:1003E00090911404E9E0660F771F881F991FEA9522
:1003F000D1F70E941C197B018C018EEB98E061E61D
:1004000073E00E9409198EEB98E0B801A7012AE079
:1004100030E00E94CB188EEB98E067E773E00E9413
:1004200009199AE016950795F794E7949A95D1F7EC
:100430008EEB98E0B801A7012AE030E00E94CB18CB
:100440008EEB98E06EE873E00E9409198AE0169539
:100450000795F794E7948A95D1F78EEB98E0B80169
:10046000A7012AE030E00E94CB188EEB98E065EA05
:1004700073E00E940B1986E294E068E074E0F6D61F
:1004800086E294E067E040E0EAD71F910F91FF9089
:10049000EF900895109248041092490410924C0471
:1004A00010924E0482E090E0A0E0B0E080934F0410
:1004B00090935004A0935104B09352041092660498
:1004C0001092700410926F0487EE93E090936E0484
:1004D00080936D04109272040895FC01673020F03F
:1004E00086E1858380E00895262F30E060FD02C01C
:1004F000663019F48DB58E7F02C08DB581608DBDDB
:100500008CB58C7F8CBD4CB522FD02C090E001C043
:1005100092E036952795822F8170842B892B8CBD94
:1005200081E00895FF920F931F93CF93DF938B0188
:100530000E94D511EB01FF24FA94FEBC0DB407FE16
:10054000FDCF8EB58F3F11F481E008C00E94D51118
:100550006C1B7D0B6017710780F380E0DF91CF91FA
:100560001F910F91FF900895FC01848160E00C942D
:10057000F812FC01848161E00C94F812DC016EBD7C
:10058000FA0120E030E00DB407FEFDCF80818EBD82
:100590000DB407FEFDCF81818EBD2E5F3F4F329699
:1005A00082E02030380779F70DB407FEFDCF8FEFDA
:1005B0008EBD0DB407FEFDCF8FEF8EBD0DB407FECF
:1005C000FDCF8FEF8EBD0DB407FEFDCF8EB51A9611
:1005D0008C931A978F71853011F481E0089581E131
:1005E00015968C931597CD01C4DF80E00895FF9296
:1005F0000F931F93CF93DF93EC010E94D5118B01D2
:10060000FF24FA9409C00E94D511601B710B6D5232
:10061000714010F08FE00DC0FEBC0DB407FEFDCFA1
:100620008EB58A878F3F79F38E3F11F481E005C044
:100630008DE08D83CE019DDF80E0DF91CF911F9112
:100640000F91FF900895CF93DF93EC018E81882363
:10065000C9F08FEF8EBD2F8138854FEF04C00DB4E8
:1006600007FEFDCF4EBD2F5F3F4FC901019781505F
:100670009240A8F338872F830DB407FEFDCFCE013B
:1006800078DF1E82DF91CF910895DF92EF92FF9283
:100690000F931F93CF93DF93EC01D62E79018A013C
:1006A000D2DFCE0161DFCE016CE271E03BDF8D2D48
:1006B00080648EBD0DB407FEFDCF28E130E0D80187
:1006C000C701022E04C0B695A795979587950A9401
:1006D000D2F78EBD0DB407FEFDCF285030408FEF0E
:1006E000283F380761F7DD2011F485E906C088E06E
:1006F000D81611F487E801C08FEF8EBD0DB407FE48
:10070000FDCF90E02FEF2EBD0DB407FEFDCF8EB5CF
:1007100087FF02C09150B9F78A87DF91CF911F916F
:100720000F91FF90EF90DF900895CF92DF92EF92BC
:10073000FF920F931F93CF93DF93EC017A018B010C
:100740006901411551056105710511F482E133C05C
:100750008B85833039F029E0EE0CFF1C001F111F40
:100760002A95D1F7CE0168E1A80197018EDF882391
:1007700011F084E020C0CE016EEFA601FFDE8823D9
:10078000D9F0CE0168E572E0CDDE882311F485E171
:1007900012C0CE016DE020E030E040E050E075DFB7
:1007A000882341F48FEF8EBD0DB407FEFDCF8EB5CB
:1007B000882371F084E18D83CE01DBDE80E0DF9160
:1007C000CF911F910F91FF90EF90DF90CF90089500
:1007D000CE01CFDE81E0F3CF8F929F92AF92BF9296
:1007E000CF92DF92EF92FF920F931F93CF93DF93FD
:1007F000EC015A016B0149010115110509F477C09B
:10080000C801820F931F8150924008F06CC08E8106
:10081000882371F088819981AA81BB814817590783
:100820006A077B0729F48F8198858816990608F551
:10083000A882B982CA82DB828B85833039F069E075
:10084000AA0CBB1CCC1CDD1C6A95D1F7CE0161E162
:10085000A60195011ADF882319F083E08D8343C038
:10086000CE01C5DE882309F43EC018861F8281E0D0
:100870008E838FEF8EBD8F8198852FEF05C00DB4CD
:1008800007FEFDCF2EBD019688159905C0F3988708
:100890008F83D801119720E030E09FEF0BC00DB49B
:1008A00007FEFDCF8EB5F701E20FF31F80839EBDDB
:1008B0002F5F3F4F2A173B0790F30DB407FEFDCF84
:1008C0008EB5AE0DBF1D8C932F813885200F311F43
:1008D00038872F838985882319F02050324038F0DB
:1008E000CE01B1DE04C0CE0144DE80E001C081E073
:1008F000DF91CF911F910F91FF90EF90DF90CF90FC
:10090000BF90AF909F908F900895EF92FF920F93BA
:100910001F93790120E030E000E012E05DDF1F91DD
:100920000F91FF90EF900895BF92CF92DF92EF92D8
:10093000FF920F931F93CF93DF93EC01B62E1B868C
:1009400019861E821D824C830E94D5116B018C81F9
:1009500061E00E944512CE010CDE82E360E00E945D
:10096000451283E361E00E94451284E361E00E9446
:10097000451285E361E00E94451285E361E00E9433
:10098000F81283E58CBD8DB58E7F8DBD80E09FEF25
:100990009EBD0DB407FEFDCF8F5F8A30C9F7CE0133
:1009A000E3DD09C00E94D5116C197D09615D7740B6
:1009B00010F081E059C0CE0160E020E030E040E07E
:1009C00050E063DE182F8A87813061F7CE0168E03E
:1009D0002AEA31E040E050E058DE82FF02C01B8787
:1009E00011C080E02FEF2EBD0DB407FEFDCF9EB5E8
:1009F0008F5F8430C1F79A879A3A11F082E034C051
:100A000082E08B878B85823021F0EE24FF248701E2
:100A10000FC0E12CF12C012DF0E41F2F09C00E9422
:100A2000D5116C197D09615D774010F088E01CC01C
:100A3000CE0167E320E030E040E050E026DECE016A
:100A400069E2A801970121DE8A87882341F78B8517
:100A5000823021F5CE016AE320E030E040E050E052
:100A600014DE882331F086E08D83CE0182DD80E0C4
:100A70001AC08FEF8EBD0DB407FEFDCF8EB5807C02
:100A8000803C11F483E08B8780E09FEF9EBD0DB426
:100A900007FEFDCF2EB58F5F8330C1F7CE0169DD34
:100AA000CE016B2D1ADDDF91CF911F910F91FF9039
:100AB000EF90DF90CF90BF9008956F927F928F92CA
:100AC0009F92AF92BF92CF92DF92EF92FF920F93DD
:100AD0001F93CF93DF93EC017A018B012D812223A9
:100AE00009F480C08B899C89AD89BE8984179507DC
:100AF000A607B70708F476C085C0E114F104010524
:100B0000110549F41E821F82188619861A861B86D3
:100B10001C861D8665C02A853B854C855D85EB8DD1
:100B2000FC8D858590E00996215030404040504032
:100B300039014A01082E04C09694879477946794EB
:100B40000A94D2F72F5F3F4F4F4F5F4F0894E10851
:100B5000F108010911095701680104C0D694C7942E
:100B6000B794A7948A95D2F70894E11CF11C011D53
:100B7000111DA614B704C804D90428F021153105A5
:100B80004105510549F48F89988DA98DBA8D8E83C1
:100B90009F83A887B98716C0A618B708C808D908C0
:100BA00011C04E815F81688579858B8D9C8D940104
:100BB0000E944B0F0894A108B108C108D1088823EE
:100BC00031F410C086E0882E912C8C0E9D1EA1144D
:100BD000B104C104D10429F7EA86FB860C871D877E
:100BE00081E001C080E0DF91CF911F910F91FF90D4
:100BF000EF90DF90CF90BF90AF909F908F907F90BD
:100C00006F900895223009F078CFE6CFCF93DF932D
:100C1000EC01462F6E857F858889998924D78823A2
:100C200019F420E030E00AC08A89282F30E095E0EE
:100C3000220F331F9A95E1F722573B4FC901DF91ED
:100C4000CF9108950F931F93CF93DF938C01FC01F5
:100C500085818823C9F1848187FF34C0C80161E0A0
:100C6000D5DFEC01009781F1F8018581823040F4F5
:100C700083899489A589B6898C8F9D8FAE8FBF8F0C
:100C8000F8018789908D9B8F8A8F8789908DA18DA0
:100C9000B28DCD01AA27BB279D8B8C8BE0918C0454
:100CA000F0918D04309751F0BE016A5E7F4FCE0106
:100CB00048961995888D998D9B8B8A8BF801848134
:100CC0008F77848395D601C080E0DF91CF911F910B
:100CD0000F9108956F927F928F929F92AF92BF92E1
:100CE000CF92DF92EF92FF920F931F93DF93CF93F8
:100CF00000D00F92CDB7DEB77C015A016B01DC0149
:100D000015968C911597813009F08BC014968C91B3
:100D100081FF87C09AC00097A105B10511F481E059
:100D200081C0F7016284738484849584C701B6010D
:100D3000A501C3DE882309F474C0D7015B968D91A9
:100D40009C915C97A114B104C104D10489F4579615
:100D50004D915D916D917C915A970E94BD0F8823B2
:100D600009F45FC0F701178A108E118E128E3CC0F5
:100D7000D70116964D915D916D917C9119979E01C9
:100D80002F5F3F4F0E944B0F882309F44AC0D701C1
:100D90005B96ED91FC915C9749815A816B817C81D6
:100DA0008789803129F088EF9FEFAFEFBFE004C063
:100DB00088EF9FEFA0E0B0E0481759076A077B076C
:100DC00098F4CF010E94BD0F882359F1F7014681A5
:100DD000578160857185838D948D0FEF1FEF2FEF05
:100DE0003FE0BED78823E9F0D7015396AD92BD927C
:100DF000CD92DC92569714968C9114978068149635
:100E00008C93C7011FDF882361F0B601A5016A1426
:100E10007B048C049D0410F4B401A301C7014DDED2
:100E200001C080E00F900F900F900F90CF91DF9155
:100E30001F910F91FF90EF90DF90CF90BF90AF90F8
:100E40009F908F907F906F900895F7018389948988
:100E5000A589B68984179507A607B70708F05BCF61
:100E6000E0CF2F923F924F925F926F927F928F923C
:100E70009F92AF92BF92CF92DF92EF92FF920F9329
:100E80001F93CF93DF93EC012A018D81882309F40E
:100E9000C4C08C8180FFC1C0D6C025014E185F0838
:100EA0004B0176E0272E312C2C0E3D1E3201AFC0B7
:100EB0002A853B854C855D856FEFA62E61E0B62EB9
:100EC000A222B3228D8179018A0199E016950795B6
:100ED000F794E7949A95D1F7EB8DFC8D823049F425
:100EE000428D538D648D758D4E0D5F1D601F711F7A
:100EF0003EC0D480DA94DE20A114B104D1F4DD2008
:100F0000C1F4211531054105510549F48F89988DAA
:100F1000A98DBA8D8E839F83A887B9870AC04E8119
:100F20005F8168857985CF019101B5D7882309F460
:100F300074C0EB8DFC8D4E815F8168857985425050
:100F4000504060407040058404C0440F551F661F28
:100F5000771F0A94D2F786859785A089B189480FB3
:100F6000591F6A1F7B1F4D0D511D611D711D80E0B2
:100F700092E08A199B0963018615970508F46C01B4
:100F80008C8186FD06C080E0C81682E0D80609F094
:100F900072C08091DF039091E003A091E103B091D2
:100FA000E203481759076A077B0709F464C0809178
:100FB0008E0690918F069501860174010DDC8823C1
:100FC00061F18C0C9D1C12C0950122573B4FA90169
:100FD0004C0D5D1DD401F90102C081918D93E41780
:100FE000F507D9F7E21BF30B8E0E9F1E960140E02A
:100FF00050E08A859B85AC85BD85820F931FA41F19
:10100000B51F8A879B87AC87BD876C187D086114E4
:10101000710409F04DCFA20102C04FEF5FEFCA018A
:10102000DF91CF911F910F91FF90EF90DF90CF90C4
:10103000BF90AF909F908F907F906F905F904F90F8
:101040003F902F900895AB88BC88CD88DE88EA84D5
:10105000FB840C851D859A0140E050E0D601C50156
:101060008E199F09A00BB10B82179307A407B50730
:1010700008F413CF15CFCB01BA0140E0F4D4882394
:1010800009F0A2CFCACFCF92DF92EF92FF920F93D7
:101090001F93DF93CF930F92CDB7DEB76C01FC01A6
:1010A0008581823068F0E284F38404851585C60169
:1010B000BE016F5F7F4F41E050E0D3DE019769F0E2
:1010C00020E030E0C9010F90CF91DF911F910F9187
:1010D000FF90EF90DF90CF900895F6018285938581
:1010E000A485B5854F96A11DB11D82879387A487DE
:1010F000B587F5E016950795F794E794FA95D1F73B
:101100008E2D8F70282F30E0E5E0220F331FEA95F7
:10111000E1F722573B4FD6CFDF93CF9300D0CDB727
:10112000DEB7282F6AE00E943B19805D8983822FF9
:101130000E943B19905D9A831B828EEB98E0BE0162
:101140006F5F7F4F0E9409190F900F900F90CF9102
:10115000DF910895EF92FF920F931F938C01812FDF
:10116000869586958695D8DFBEEBEB2EB8E0FB2EF4
:10117000C7016AE30E941918C801A5E096958795F2
:10118000AA95E1F78F73C8DFC7016AE30E941918B7
:101190000F711070802F880FBFDF1F910F91FF908C
:1011A000EF900895EF92FF920F931F937C010EEB47
:1011B00018E0BC01672F772766956454784FC80103
:1011C0004AE050E00E94DD18C8016DE20E94191843
:1011D000C70125E0969587952A95E1F78F709CDFEA
:1011E000C8016DE20E9419188E2D8F7195DF1F9135
:1011F0000F91FF90EF900895DF92EF92FF920F937F
:101200001F93CF93DF937C01D62EEC0110E000E01A
:101210008881803271F0083031F48EEB98E06EE214
:101220000E9419181F5F8EEB98E068810E94681673
:101230001F5F0F5F21960B3059F7F7018385887187
:10124000803151F48EEB98E06FE203C08EEB98E0B2
:1012500060E20E9419181F5F1D15C0F3DF91CF9146
:101260001F910F91FF90EF90DF9008950F931F93C0
:10127000CF93DF93EC018B018D81882309F040C06F
:10128000FB0187898031B1F482E08D831F8A188E3B
:10129000198E1A8E808D918DA0E0B0E045E0880F08
:1012A000991FAA1FBB1F4A95D1F78B8B9C8BAD8BC7
:1012B000BE8B14C0803221F583E08D83FB01428D0B
:1012C000538D648D758D4F8B588F698F7A8F9E01EA
:1012D0002D5E3F4FC801A8D6882391F01C8F0B8F3D
:1012E00081E08C831E821F82188619861A861B86CF
:1012F0001C861D861E861F86188A198A1A8A01C0B6
:1013000080E0DF91CF911F910F9108951F93CF93AC
:10131000DF93EC01142FE62FF0E075E0EE0FFF1FD6
:101320007A95E1F7E257FB4F8385817121F0842F95
:10133000827409F052C06A8B8091DF039091E003C0
:10134000A091E103B091E2038E879F87A88BB98BB0
:1013500084899589A0E0B0E0BC0155274427828D9F
:10136000938DA0E0B0E0482B592B6A2B7B2B4F8B41
:10137000588F698F7A8F838590E08871907000977D
:1013800051F4848D958DA68DB78D8B8B9C8BAD8BF9
:10139000BE8B81E00BC0409701F59E012D5E3F4F53
:1013A0008B8D9C8D41D68823C1F084E08D83812F65
:1013B0008F708C831E821F82188619861A861B8660
:1013C0001C861D8616FD02C081E008C0CE0140E0EB
:1013D00050E060E070E07EDC01C080E0DF91CF9102
:1013E0001F910895DF92EF92FF920F931F93CF9377
:1013F000DF938C01EB017A01D22EFC0185818823D9
:1014000029F5822F8073803309F18B8D9C8D948F09
:10141000838FE5E0440F551FEA95E1F760E070E047
:10142000CE014BDB882391F0CE012DDEFC0100972D
:1014300069F08081882351F0853E41F08E3231F091
:101440006E2D6F70C8014D2D61DF01C080E0DF910E
:10145000CF911F910F91FF90EF90DF9008952F9201
:101460003F924F925F926F927F928F929F92AF9234
:10147000BF92CF92DF92EF92FF920F931F93DF9371
:10148000CF93CDB7DEB76F970FB6F894DEBF0FBE20
:10149000CDBF6C016E8FE42EFC0116821782108680
:1014A00011861286138614861586862F90E063E0D7
:1014B000462E512C4822592251E0652E712C68226B
:1014C000792244E0842E912C882299221E010894CE
:1014D000211C311C2E2D2E5F2F8F32E0A32EB12C1C
:1014E000A822B9227FC0F8018081882309F480C036
:1014F000853E09F477C08E3209F474C0838583FD7C
:1015000071C0FF2406C08EEB98E060E20E941918BB
:10151000F394FE14C1F74114510411F460E001C0CA
:101520006EE0C80169DE6114710469F0F801808D14
:10153000918D38DE8EEB98E060E20E941918F80178
:101540008689978907DEF80183858871803199F053
:10155000A114B10481F08EEB98E060E20E941918AA
:10156000F801448D558D668D778D8EEB98E02AE0DD
:1015700030E00E94BE188EEB98E00E942118811482
:10158000910481F1F80183858871803159F5F60164
:1015900082859385A485B58525E0B695A795979511
:1015A00087952A95D1F78C011C821B8287EE93E0E8
:1015B0009A8389831E82A80141505040C101B6011F
:1015C00021E010DF882321F0C1016E8D4F8D47DFB0
:1015D00085E0000F111F8A95E1F7A80160E070E037
:1015E000C6016BDAC6014FDD8C01009709F07BCF95
:1015F0006F960FB6F894DEBF0FBECDBFCF91DF91CF
:101600001F910F91FF90EF90DF90CF90BF90AF9020
:101610009F908F907F906F905F904F903F902F9012
:101620000895CF93DF93EC019C012A5F3F4F8B8D90
:101630009C8D41E050E060E070E064D58823A1F02B
:101640008F89988DA98DBA8D0097A105B10559F4A0
:101650008E819F81A885B9858F8B988FA98FBA8F2E
:101660008C8180688C8381E0DF91CF9108952F92E7
:101670003F924F925F927F928F929F92AF92BF92D2
:10168000CF92DF92EF92FF920F931F93DF93CF934E
:1016900000D000D0CDB7DEB76C01162F072F5E83C8
:1016A0004D83DC0115968C911597813009F06AC144
:1016B00014968C9181FF66C188C1F60143895489D3
:1016C0006589768982859385A485B5858417950774
:1016D000A607B70729F0C601F0D9882309F452C13B
:1016E000812F902F9C0129012D803E8013C1D601AE
:1016F0005B96ED91FC915C97DA01C90119E0B69512
:10170000A795979587951A95D1F774807A94782242
:101710007FEF872E71E0972E82229322772009F0A7
:101720004CC08114910409F048C0D60116964D9121
:101730005D916D917C911997411551056105710578
:1017400081F457968D919D910D90BC91A02D00979D
:10175000A105B10541F1F60186839783A087B18782
:101760002CC0CF019E012F5F3F4F95D3882309F4F2
:1017700010C129813A814B815C81D6015B96ED9144
:10178000FC915C978789803129F088EF9FEFAFEF5C
:10179000BFE004C088EF9FEFA0E0B0E02817390752
:1017A0004A075B0728F0C6013CDF882331F4EAC012
:1017B000F601268337834087518780E092E08819BD
:1017C000990951018215930508F45C01D6015B96D5
:1017D000ED91FC915C971696ED90FD900D911C910A
:1017E00019978EEF9FEFAFEFBFEFE80EF91E0A1FBC
:1017F0001B1F058404C0EE0CFF1C001F111F0A9460
:10180000D2F786859785A089B189E80EF91E0A1F4F
:101810001B1FE70CF11C011D111D90E0A91692E0A1
:10182000B90651F58091DF039091E003A091E103A7
:10183000B091E2038E159F05A007B10761F48FEF09
:101840009FEFAFEFBFEF8093DF039093E003A09390
:10185000E103B093E20380918E0690918F06B80168
:10186000A70192010E949503882309F48BC0A0E090
:10187000B2E04A0E5B1E3CC08114910401F5F601F2
:10188000228533854485558583899489A589B689C0
:10189000281739074A075B0790F0AAD0882309F474
:1018A00071C0E092DF03F092E0030093E103109334
:1018B000E2038091900681608093900607C0C80182
:1018C000B70141E0D0D0882309F45CC094012257CD
:1018D0003B4FA9014A0D5B1DD201F90102C08D9158
:1018E0008193E417F507D9F7E21BF30B4E0E5F1E49
:1018F0002A183B08950140E050E0F6018285938567
:10190000A485B585820F931FA41FB51F8287938777
:10191000A487B587D6011A962D913D914D915C9182
:101920001D972114310409F0E2CE53968D919D91BB
:101930000D90BC91A02D82179307A407B50748F41A
:10194000F601238B348B458B568B8481806884838E
:1019500011C080918C0490918D04892B59F08D8158
:101960009E81892B39F0D60114968C91149780684A
:1019700014968C93F601848183FF0DC0C60162D951
:10198000882349F481E090E0D60113969C938E93CE
:1019900012971E821D828D819E8126960FB6F89425
:1019A000DEBF0FBECDBFCF91DF911F910F91FF9092
:1019B000EF90DF90CF90BF90AF909F908F907F90EF
:1019C0005F904F903F902F90089582FD76CE88CE05
:1019D000DF93CF930F92CDB7DEB76983BE016F5F00
:1019E0007F4F41E050E043DE0F90CF91DF910895AB
:1019F00080919006882399F14091DF035091E00394
:101A00006091E1037091E20380918E0690918F06C0
:101A10002EE834E00E949503882319F14091910645
:101A2000509192066091930670919406411551056C
:101A30006105710591F080918E0690918F062EE8D8
:101A400034E00E949503882361F010929106109271
:101A5000920610929306109294061092900681E0DE
:101A6000089580E00895DF92EF92FF920F931F9305
:101A70007B018C01D42E8091DF039091E003A09133
:101A8000E103B091E2038E159F05A007B107B9F0FD
:101A9000AFDF8823D9F080918E0690918F06B80130
:101AA000A7012EE834E00E948504882379F0E092B3
:101AB000DF03F092E0030093E1031093E2038091CF
:101AC00090068D298093900681E001C080E01F91EF
:101AD0000F91FF90EF90DF9008958F929F92AF92B9
:101AE000BF92CF92DF92EF92FF920F931F93CF930B
:101AF000DF936C01142F70938F0660938E0644233E
:101B000021F48824992454013FC0453008F01AC1BB
:101B100060E070E080E090E040E0A5DF882309F419
:101B200011C1C12FD0E02197FE0174E0EE0FFF1F1D
:101B30007A95E1F7E257FB4FE254FE4F8081EE5B6E
:101B4000F14090E08F779070892B09F0FBC0E6534D
:101B5000FE4F80819181A281B38184369105A105D8
:101B6000B10508F4EFC064E0CC0FDD1F6A95E1F722
:101B7000CC5AD94F88809980AA80BB808114910467
:101B8000A104B10409F4DEC0C501B40140E06BDF7B
:101B9000882309F4D7C08091990490919A048050C9
:101BA000924009F0CFC020919E04222309F4CAC0BC
:101BB00080919C0490919D04892B09F4C3C080916D
:101BC0009B04882309F4BEC0F601228B80919B04FC
:101BD0008483158661E070E007C04F5FF60145879A
:101BE0004150483008F0AEC0F6014585848190E050
:101BF0009B01042E02C0220F331F0A94E2F78217C2
:101C0000930759F72091A4043091A50421153105BB
:101C100019F040E050E008C02091B2043091B304C4
:101C20004091B4045091B504F6012583368347836F
:101C30005087E0909C04F0909D0400E010E0E80CD8
:101C4000F91C0A1D1B1DE38AF48A058B168B8091F3
:101C50009F049091A004918F808F60919E0470E00A
:101C600080E090E00E941C196E0D7F1D801F911F67
:101C7000F601628F738F848F958F20919F0430912E
:101C8000A00455E0220F331F5A95E1F721503E4F33
:101C9000232F3327269540E050E0260F371F481F9B
:101CA000591F26873787408B518B8091A1049091D3
:101CB000A204009719F0A0E0B0E008C08091AE0443
:101CC0009091AF04A091B004B091B104850174016A
:101CD000E21AF30A040B150BA8019701280F391F0C
:101CE0004A1F5B1FF601058404C05695479537953A
:101CF00027950A94D2F72187328743875487253F57
:101D0000FFE03F07F0E04F07F0E05F0710F48CE0E2
:101D100006C0255F3F4F4040504028F480E1F60167
:101D2000878B81E010C08091BA049091BB04A09190
:101D3000BC04B091BD04F601828F938FA48FB58F40
:101D400080E2EECF80E0DF91CF911F910F91FF9065
:101D5000EF90DF90CF90BF90AF909F908F900895BD
:101D60004F925F926F927F928F929F92AF92BF92AB
:101D7000CF92DF92EF92FF920F931F93CF93DF9357
:101D8000EC016A017B0128013901423051056105EE
:101D9000710508F46EC089859A85AB85BC8501966E
:101DA000A11DB11D84179507A607B70708F461C0E8
:101DB0002B893C894D895E898F89803129F4992747
:101DC0008F2D7E2D6D2D09C0C701B60117E09695A8
:101DD0008795779567951A95D1F74B015C01820E2F
:101DE000931EA41EB51E8091DF039091E003A09185
:101DF000E103B091E20388169906AA06BB0631F00A
:101E0000C501B40140E02FDE882399F18F8980312C
:101E100049F4F601F070EE0FFF1FE257FB4F5182BD
:101E200040820DC0F601EF77F070EE0FFF1FEE0F4E
:101E3000FF1FE257FB4F4082518262827382809182
:101E400090068160809390068A89823080F08D812F
:101E50009E81AF81B885880E991EAA1EBB1E8092F6
:101E6000910690929206A0929306B092940681E019
:101E700001C080E0DF91CF911F910F91FF90EF9013
:101E8000DF90CF90BF90AF909F908F907F906F909A
:101E90005F904F900895CF92DF92EF92FF920F9351
:101EA0001F93CF93DF93EC017A018B016901898540
:101EB0009A85AB85BC850196A11DB11D8417950738
:101EC000A607B70708F44FC02B893C894D895E8966
:101ED0008F89803129F49927812F702F6F2D09C0A8
:101EE000C801B701E7E09695879577956795EA95DC
:101EF000D1F7260F371F481F591F8091DF0390919C
:101F0000E003A091E103B091E203281739074A07E3
:101F10005B0731F0CA01B90140E0A5DD882319F162
:101F20008F89803159F4F701F070EE0FFF1FE257EF
:101F3000FB4F80819181A0E0B0E00EC0F701EF7708
:101F4000F070EE0FFF1FEE0FFF1FE257FB4F808177
:101F50009181A281B381BF70F60180839183A283B6
:101F6000B38381E001C080E0DF91CF911F910F9199
:101F7000FF90EF90DF90CF900895AF92BF92CF92F5
:101F8000DF92EF92FF920F931F93DF93CF9300D0D6
:101F90000F92CDB7DEB76C017A018B0182E090E041
:101FA000A0E0B0E0F60180839183A283B3835E0159
:101FB0000894A11CB11CC601B801A70195016BDFF3
:101FC000882311F1C601B801A70100E010E020E06C
:101FD00030E0C6DE8823C1F0E980FA800B811C81E5
:101FE000F6018789803129F088EF9FEFAFEFBFE0DE
:101FF00004C088EF9FEFA0E0B0E0E816F9060A07FA
:102000001B07C8F281E001C080E00F900F900F9095
:102010000F90CF91DF911F910F91FF90EF90DF9084
:10202000CF90BF90AF9008954F925F926F927F9242
:102030008F929F92AF92BF92CF92DF92EF92FF92D8
:102040000F931F93DF93CF9300D00F92CDB7DEB7DE
:102050006C0149835A836B837C833901EE24FF240E
:1020600087012E010894411C511C812CA2E09A2E5C
:10207000A12CB12C49815A816B817C81C6019201CE
:102080000ADF882351F1D501C401F601058404C09B
:10209000880F991FAA1FBB1F0A94D2F7E80EF91EDA
:1020A0000A1F1B1F29813A814B815C8187898031FE
:1020B00029F088EF9FEFAFEFBFE004C088EF9FEFFC
:1020C000A0E0B0E0281739074A075B0798F2F30150
:1020D000E082F1820283138381E00F900F900F90D2
:1020E0000F90CF91DF911F910F91FF90EF90DF90B4
:1020F000CF90BF90AF909F908F907F906F905F90A8
:102100004F9008952F923F924F925F926F927F92DD
:102110008F929F92AF92BF92CF92DF92EF92FF92F7
:102120000F931F93DF93CF93CDB7DEB72F970FB6E3
:10213000F894DEBF0FBECDBF1C014A875B876C875A
:102140007D873F872E87D9010D911D912D913C915F
:10215000011511052105310549F04801590108947F
:10216000811C911CA11CB11C198610C0FC0180802F
:102170009180A280B38019868A859B85AC85BD85B8
:102180000197A105B10511F491E09987D101199644
:102190008D919D910D90BC91A02D0196A11DB11D19
:1021A0008D839E83AF83B8877501640144245524D1
:1021B00032018E010F5F1F4FF10181859285A3854A
:1021C000B485481659066A067B0608F08CC08D81D6
:1021D0009E81AF81B8858C159D05AE05BF0550F475
:1021E00082E0882E912CA12CB12CB2E0CB2ED12CE8
:1021F000E12CF12CC101B701A60198014CDE882326
:1022000009F471C089819A81AB81BC81A7019601D3
:102210002F5F3F4F4F4F5F4F0097A105B10519F05A
:1022200049015A010DC0281939094A095B098A85F3
:102230009B85AC85BD85281739074A075B0759F090
:102240000894411C511C611C711C0894C11CD11CB8
:10225000E11CF11CB1CFC101A601B7010FEF1FEFC7
:102260002FEF3FE07DDD882391F43DC0260137014B
:1022700008944108510861087108C101B301A20125
:10228000970186016DDD882371F1730162018C1461
:102290009D04AE04BF0450F3AE85BF854D915D91A2
:1022A0006D917C91411551056105710531F0C101B8
:1022B0009501840155DD8823B1F0EE85FF8580828C
:1022C0009182A282B382F985FF2359F00894811C80
:1022D000911CA11CB11CD1018D929D92AD92BC921A
:1022E000139781E001C080E02F960FB6F894DEBF0F
:1022F0000FBECDBFCF91DF911F910F91FF90EF9057
:10230000DF90CF90BF90AF909F908F907F906F9015
:102310005F904F903F902F9008951F920F920FB6AD
:102320000F9211242F933F938F939F93AF93BF935B
:102330008091990690919A06A0919B06B0919C0677
:1023400030919D060196A11DB11D232F2D5F2D37C4
:1023500020F02D570196A11DB11D20939D0680935D
:10236000990690939A06A0939B06B0939C06809141
:10237000950690919606A0919706B09198060196C1
:10238000A11DB11D8093950690939606A093970684
:10239000B0939806BF91AF919F918F913F912F91EC
:1023A0000F900FBE0F901F9018958FB7F894209143
:1023B000990630919A0640919B0650919C068FBFDA
:1023C000B901CA010895789484B5826084BD84B54A
:1023D000816084BD85B5826085BD85B5816085BD20
:1023E000EEE6F0E0808181608083E1E8F0E0108239
:1023F000808182608083808181608083E0E8F0E07A
:10240000808181608083E1EBF0E080818460808363
:10241000E0EBF0E0808181608083E1E9F0E08081A1
:1024200082608083808181608083E0E9F0E0808148
:1024300081608083E1EAF0E0808182608083808136
:1024400081608083E0EAF0E0808181608083E1E266
:10245000F1E0808182608083808181608083E0E21E
:10246000F1E0808181608083EAE7F0E08081846030
:10247000808380818260808380818160808380818D
:10248000806880831092C1000895CF93DF93482F16
:1024900050E0CA0188589E4FFC0134914E5C5E4F5B
:1024A000FA018491882369F190E0880F991FFC015B
:1024B000EC51FF4FA591B491FC01E250FF4FC59143
:1024C000D491662351F42FB7F8948C91932F909563
:1024D00089238C93888189230BC0623061F42FB7E4
:1024E000F8948C91932F909589238C938881832BDA
:1024F00088832FBF06C09FB7F8948C91832B8C9351
:102500009FBFDF91CF910895893009F449C08A3087
:10251000A0F4843051F1853040F4823079F1833079
:1025200000F5813009F063C026C0873079F188302A
:1025300098F5863009F05BC025C08D3009F442C0A3
:102540008E3028F48B30B1F18C30C0F52DC0803145
:1025500009F442C0813109F445C08F3009F047C009
:1025600037C0809180008F7703C0809180008F7D7D
:1025700080938000089584B58F7702C084B58F7DE5
:1025800084BD08958091B0008F7703C08091B00022
:102590008F7D8093B0000895809190008F7707C061
:1025A000809190008F7D03C080919000877F809301
:1025B000900008958091A0008F7707C08091A000BF
:1025C0008F7D03C08091A000877F8093A000089535
:1025D000809120018F7703C0809120018F7D8093AF
:1025E0002001089580912001877F80932001089524
:1025F000FF920F931F93F62E482F50E0CA0182548A
:102600009E4FFC012491CA0188589E4FFC011491F1
:102610004E5C5E4FFA0104910023C1F0222311F0B9
:10262000822F72DFE02FF0E0EE0FFF1FE250FF4F2E
:10263000A591B4919FB7F894FF2021F48C91109547
:10264000812302C08C91812B8C939FBF1F910F918E
:10265000FF90089508951F920F920FB60F920BB638
:102660000F9211242F933F934F938F939F93EF9348
:10267000FF938091C00082FD1DC04091C600209153
:10268000DE063091DF062F5F3F4F2F733070809151
:10269000E0069091E1062817390771F0E091DE0617
:1026A000F091DF06E256F94F40833093DF06209326
:1026B000DE0602C08091C600FF91EF919F918F913D
:1026C0004F913F912F910F900BBE0F900FBE0F9027
:1026D0001F90189508951F920F920FB60F920BB688
:1026E0000F9211242F933F934F938F939F93EF93C8
:1026F000FF938091C80082FD1DC04091CE002091C3
:102700006607309167072F5F3F4F2F7330708091BE
:102710006807909169072817390771F0E0916607FB
:10272000F0916707EA5DF84F408330936707209385
:10273000660702C08091CE00FF91EF919F918F912B
:102740004F913F912F910F900BBE0F900FBE0F90A6
:102750001F90189508951F920F920FB60F920BB607
:102760000F9211242F933F934F938F939F93EF9347
:10277000FF938091D00082FD1DC04091D600209132
:10278000EE073091EF072F5F3F4F2F73307080912E
:10279000F0079091F1072817390771F0E091EE07E3
:1027A000F091EF07E255F84F40833093EF07209305
:1027B000EE0702C08091D600FF91EF919F918F911B
:1027C0004F913F912F910F900BBE0F900FBE0F9026
:1027D0001F90189508951F920F920FB60F920BB687
:1027E0000F9211242F933F934F938F939F93EF93C7
:1027F000FF938091300182FD1DC0409136012091F0
:102800007608309177082F5F3F4F2F73307080919B
:102810007808909179082817390771F0E0917608C7
:10282000F0917708EA5CF74F408330937708209364
:10283000760802C080913601FF91EF919F918F91B0
:102840004F913F912F910F900BBE0F900FBE0F90A5
:102850001F901895E091CA08F091CB08E05CFF4FFB
:102860008191919120813181805C9F4F821B930BDC
:1028700060E470E00CD5892B09F0ECDEE091EC0807
:10288000F091ED08E05CFF4F8191919120813181C1
:10289000805C9F4F821B930B60E470E0F8D4892B1F
:1028A00009F018DFE0910E09F0910F09E05CFF4F8D
:1028B0008191919120813181805C9F4F821B930B8C
:1028C00060E470E0E4D4892B09F044DFE091300942
:1028D000F0913109E05CFF4F81919191208131812C
:1028E000805C9F4F821B930B60E470E0D0D4892BF7
:1028F00009F070CF08951F920F920FB60F920BB68A
:102900000F9211242F933F938F939F93EF93FF93F5
:102910002091220730912307809124079091250769
:102920002817390731F48091C1008F7D8093C10051
:1029300014C0E0912407F0912507EE51F94F208152
:10294000809124079091250701968F739070909342
:102950002507809324072093C600FF91EF919F9154
:102960008F913F912F910F900BBE0F900FBE0F9044
:102970001F9018951F920F920FB60F920BB60F92E1
:1029800011242F933F938F939F93EF93FF93209165
:10299000AA073091AB078091AC079091AD0728173B
:1029A000390731F48091C9008F7D8093C90014C02C
:1029B000E091AC07F091AD07E659F84F2081809186
:1029C000AC079091AD0701968F7390709093AD070F
:1029D0008093AC072093CE00FF91EF919F918F9150
:1029E0003F912F910F900BBE0F900FBE0F901F9035
:1029F00018951F920F920FB60F920BB60F921124DB
:102A00002F933F938F939F93EF93FF9320913208DF
:102A10003091330880913408909135082817390790
:102A200031F48091D1008F7D8093D10014C0E0916A
:102A30003408F0913508EE50F84F20818091340829
:102A40009091350801968F7390709093350880931C
:102A500034082093D600FF91EF919F918F913F9181
:102A60002F910F900BBE0F900FBE0F901F901895D7
:102A70001F920F920FB60F920BB60F9211242F9345
:102A80003F938F939F93EF93FF932091BA083091D8
:102A9000BB088091BC089091BD082817390731F414
:102AA000809131018F7D8093310114C0E091BC0889
:102AB000F091BD08E658F74F20818091BC089091B5
:102AC000BD0801968F7390709093BD088093BC08E9
:102AD00020933601FF91EF919F918F913F912F911C
:102AE0000F900BBE0F900FBE0F901F901895AF92D6
:102AF000BF92DF92EF92FF920F931F93CF93DF93DA
:102B0000EC017A018B01DD24403081EE580780E032
:102B1000680780E0780711F0DD24D39491E0A92EB6
:102B2000B12CEC89FD89DD2069F0C50108A002C047
:102B3000880F991F0A94E2F7808360E079E08DE3C3
:102B400090E005C0108260E874E88EE190E0A80192
:102B50009701B0D3215030404040504056954795A2
:102B60003795279580E12030380720F0DD2011F0DF
:102B7000DD24D7CFE889F9893083EA89FB8920836E
:102B800019A2EE89FF89408121E030E0C9010C8C57
:102B900002C0880F991F0A94E2F7482B4083EE8900
:102BA000FF894081C9010D8C02C0880F991F0A94CA
:102BB000E2F7482B4083EE89FF894081C9010E8CE2
:102BC00002C0880F991F0A94E2F7482B4083EE89D0
:102BD000FF8980810F8C02C0220F331F0A94E2F715
:102BE000209528232083DF91CF911F910F91FF9093
:102BF000EF90DF90BF90AF900895DC011C96ED91AF
:102C0000FC911D97E05CFF4F819191912081318172
:102C1000805C9F4F821B930B60E470E038C3DC0143
:102C20001C96ED91FC911D97E05CFF4F2081318156
:102C3000E054F040DF01AE5BBF4F8D919C91119746
:102C40002817390719F42FEF3FEF07C08D919C919A
:102C5000E80FF91F8081282F30E0C9010895DC01B9
:102C60001C96ED91FC911D97E05CFF4F2081318116
:102C7000E054F040DF01AE5BBF4F8D919C91119706
:102C80002817390719F42FEF3FEF10C08D919C9151
:102C90001197E80FF91F20818D919C911197019652
:102CA0008F73907011969C938E9330E0C9010895B4
:102CB000DC0191968C919197882339F05496ED918F
:102CC000FC915597808186FFF9CF91961C920895CB
:102CD000CF93DF93EC01EE85FF85E05CFF4F208111
:102CE0003181E054F0402F5F3F4F2F733070DF0190
:102CF000AE5BBF4F8D919C91119728173907D1F387
:102D0000E05CFF4F80819181E054F040E80FF91FB3
:102D10006083EE85FF85E05CFF4F31832083EE8981
:102D2000FF89208181E090E00F8C02C0880F991FFD
:102D30000A94E2F7282B208381E089A3EC89FD899E
:102D400080818064808381E090E0DF91CF9108955D
:102D500081E008951F931092C1081092C00828EED8
:102D600033E040E050E02093C2083093C308409322
:102D7000C4085093C5086FEE73E07093BF0860936A
:102D8000BE088EE996E09093CB088093CA0882EE45
:102D900096E09093CD088093CC0885EC90E09093DA
:102DA000CF088093CE0884EC90E09093D108809374
:102DB000D00880EC90E09093D3088093D20881EC07
:102DC00090E09093D5088093D40882EC90E09093A3
:102DD000D7088093D60886EC90E09093D90880932A
:102DE000D80814E01093DA08B3E0B093DB08A7E04A
:102DF000A093DC08F5E0F093DD08E1E0E093DE0865
:102E00001092E3081092E2082093E4083093E5085A
:102E10004093E6085093E7087093E1086093E00858
:102E200086E297E09093ED088093EC088AE697E0BD
:102E30009093EF088093EE088DEC90E09093F1086A
:102E40008093F0088CEC90E09093F3088093F20864
:102E500088EC90E09093F5088093F40889EC90E07A
:102E60009093F7088093F6088AEC90E09093F90825
:102E70008093F8088EEC90E09093FB088093FA081A
:102E80001093FC08B093FD08A093FE08F093FF0890
:102E9000E093000910920509109204092093060995
:102EA0003093070940930809509309097093030967
:102EB000609302098EEA97E090930F0980930E09C0
:102EC00082EF97E0909311098093100985ED90E0CF
:102ED000909313098093120984ED90E09093150963
:102EE0008093140980ED90E0909317098093160960
:102EF00081ED90E0909319098093180982ED90E09C
:102F000090931B0980931A0986ED90E090931D0918
:102F100080931C0910931E09B0931F09A0932009E8
:102F2000F0932109E09322091092270910922609B3
:102F3000209328093093290940932A0950932B099B
:102F4000709325096093240986E398E090933109F2
:102F5000809330098AE798E090933309809332098F
:102F600085E391E0909335098093340984E391E0FF
:102F7000909337098093360980E391E09093390963
:102F80008093380981E391E090933B0980933A095B
:102F900082E391E090933D0980933C0986E391E0C0
:102FA00090933F0980933E0910934009B0934109E3
:102FB000A0934209F0934309E09344091F910895B7
:102FC0000895CF93DF93FFD9FBDF0E945701CAE238
:102FD000D4E10E9433012097E1F33CDCFACFCF9299
:102FE000DF92EF92FF920F931F93CF93DF937C01B9
:102FF0006B018A01C0E0D0E00FC0D6016D916D0178
:10300000D701ED91FC910190F081E02DC701199558
:10301000C80FD91F015010400115110571F7CE01DD
:10302000DF91CF911F910F91FF90EF90DF90CF90A4
:103030000895DC01ED91FC910190F081E02D19954E
:103040000895EF92FF920F931F938C01DC01ED9195
:10305000FC910190F081E02D6DE019957C01D80183
:10306000ED91FC910190F081E02DC8016AE0199585
:103070009C012E0D3F1DC9011F910F91FF90EF90F4
:103080000895CF93DF93EC016115710519F420E0E9
:1030900030E00FC0DB010D900020E9F71197A61B6F
:1030A000B70BE881F9810280F381E02DAD0119951C
:1030B0009C01C901DF91CF9108954F925F927F9259
:1030C0008F929F92AF92BF92CF92DF92EF92FF9238
:1030D0000F931F93DF93CF93CDB7DEB7A1970FB6B2
:1030E000F894DEBF0FBECDBF2C01742ECB01223071
:1030F00008F42AE019A231E2C32ED12CCC0EDD1E39
:10310000822E9924AA24BB24672D752FA501940132
:10311000D1D079018A01C801B701A50194018CD0F1
:10312000472D461B0894C108D1084A3014F4405D6D
:1031300001C0495CF6014083E114F1040105110569
:1031400021F07E2C5F2DC801DFCFC201B60199DFCF
:10315000A1960FB6F894DEBF0FBECDBFCF91DF9121
:103160001F910F91FF90EF90DF90CF90BF90AF90A5
:103170009F908F907F905F904F900895DC01211574
:10318000310541F4ED91FC910190F081E02D642F27
:103190001995089592CFEF92FF920F931F937C01A0
:1031A000EDDF8C01C7014DDF9C01200F311FC901EC
:1031B0001F910F91FF90EF900895EF92FF920F9360
:1031C0001F939A017B0100E010E0B801A701D6DF50
:1031D0001F910F91FF90EF900895CF92DF92EF92A1
:1031E000FF920F931F936C01E62E9A01FF2400E0DB
:1031F00010E0B801A701C2DF8C01C60122DF080F71
:10320000191FC8011F910F91FF90EF90DF90CF9091
:10321000089537CF0895EF92FF920F931F937C018B
:1032200030DF8C01C7010DDF080F191FC8011F9186
:103230000F91FF90EF900895629FD001739FF0016E
:10324000829FE00DF11D649FE00DF11D929FF00D36
:10325000839FF00D749FF00D659FF00D9927729F6D
:10326000B00DE11DF91F639FB00DE11DF91FBD01F8
:10327000CF0111240895991B79E004C0991F961776
:1032800008F0961B881F7A95C9F78095089597FBDB
:10329000092E07260AD077FD04D02ED006D00020B4
:1032A0001AF4709561957F4F0895F6F79095819582
:1032B0009F4F0895A1E21A2EAA1BBB1BFD010DC052
:1032C000AA1FBB1FEE1FFF1FA217B307E407F507D6
:1032D00020F0A21BB30BE40BF50B661F771F881FB2
:1032E000991F1A9469F760957095809590959B0148
:1032F000AC01BD01CF010895AA1BBB1B51E107C062
:10330000AA1FBB1FA617B70710F0A61BB70B881F75
:10331000991F5A95A9F780959095BC01CD01089504
:10332000EE0FFF1F0590F491E02D1994F894FFCF54
:103330000A496E697469616C697A696E67205344E1
:1033400020636172642E2E2E00696E697469616C4F
:10335000697A6174696F6E206661696C65642E209C
:103360005468696E677320746F20636865636B3A95
:10337000002A2069732061206361726420697320D0
:10338000696E7365727465643F002A204973207901
:103390006F757220776972696E6720636F727265EC
:1033A00063743F002A2064696420796F7520636824
:1033B000616E676520746865206368697053656C29
:1033C0006563742070696E20746F206D617463682A
:1033D00020796F757220736869656C64206F722044
:1033E0006D6F64756C653F00576972696E6720691F
:1033F0007320636F727265637420616E6420612054
:10340000636172642069732070726573656E742ED7
:10341000000A4361726420747970653A2000534455
:103420003100534432005344484300556E6B6E6F75
:10343000776E00436F756C64206E6F742066696EE2
:10344000642046415431362F464154333220706156
:1034500072746974696F6E2E0A4D616B65207375A5
:10346000726520796F7527766520666F726D61745D
:10347000746564207468652063617264000A566F25
:103480006C756D65207479706520697320464154B0
:1034900000566F6C756D652073697A6520286279B6
:1034A000746573293A2000566F6C756D65207369D9
:1034B0007A6520284B6279746573293A2000566F2B
:1034C0006C756D652073697A6520284D6279746525
:1034D00073293A20000A46696C657320666F756E21
:1034E00064206F6E20746865206361726420286EAA
:1034F000616D652C206461746520616E6420736960
:103500007A6520696E206279746573293A2000FF1C
:10351000FFFFFF00000000E80CEF1700000000684C
:0C35200016EF17FD152F160F1658160099
:00000001FF
